{
  "contractName": "AvatarNFT",
  "abi": [
    {
      "inputs": [
        {
          "internalType": "string",
          "name": "name",
          "type": "string"
        },
        {
          "internalType": "string",
          "name": "symbol",
          "type": "string"
        },
        {
          "internalType": "address",
          "name": "ownerAddress",
          "type": "address"
        }
      ],
      "stateMutability": "nonpayable",
      "type": "constructor"
    },
    {
      "anonymous": false,
      "inputs": [
        {
          "indexed": true,
          "internalType": "address",
          "name": "owner",
          "type": "address"
        },
        {
          "indexed": true,
          "internalType": "address",
          "name": "approved",
          "type": "address"
        },
        {
          "indexed": true,
          "internalType": "uint256",
          "name": "tokenId",
          "type": "uint256"
        }
      ],
      "name": "Approval",
      "type": "event"
    },
    {
      "anonymous": false,
      "inputs": [
        {
          "indexed": true,
          "internalType": "address",
          "name": "owner",
          "type": "address"
        },
        {
          "indexed": true,
          "internalType": "address",
          "name": "operator",
          "type": "address"
        },
        {
          "indexed": false,
          "internalType": "bool",
          "name": "approved",
          "type": "bool"
        }
      ],
      "name": "ApprovalForAll",
      "type": "event"
    },
    {
      "anonymous": false,
      "inputs": [
        {
          "indexed": true,
          "internalType": "address",
          "name": "previousOwner",
          "type": "address"
        },
        {
          "indexed": true,
          "internalType": "address",
          "name": "newOwner",
          "type": "address"
        }
      ],
      "name": "OwnershipTransferred",
      "type": "event"
    },
    {
      "anonymous": false,
      "inputs": [
        {
          "indexed": false,
          "internalType": "address",
          "name": "account",
          "type": "address"
        }
      ],
      "name": "Paused",
      "type": "event"
    },
    {
      "anonymous": false,
      "inputs": [
        {
          "indexed": true,
          "internalType": "address",
          "name": "from",
          "type": "address"
        },
        {
          "indexed": true,
          "internalType": "address",
          "name": "to",
          "type": "address"
        },
        {
          "indexed": true,
          "internalType": "uint256",
          "name": "tokenId",
          "type": "uint256"
        }
      ],
      "name": "Transfer",
      "type": "event"
    },
    {
      "anonymous": false,
      "inputs": [
        {
          "indexed": false,
          "internalType": "address",
          "name": "account",
          "type": "address"
        }
      ],
      "name": "Unpaused",
      "type": "event"
    },
    {
      "anonymous": false,
      "inputs": [
        {
          "indexed": true,
          "internalType": "uint256",
          "name": "id",
          "type": "uint256"
        }
      ],
      "name": "welcomeToAvatar",
      "type": "event"
    },
    {
      "inputs": [],
      "name": "MAX_SUPPLY",
      "outputs": [
        {
          "internalType": "uint256",
          "name": "",
          "type": "uint256"
        }
      ],
      "stateMutability": "view",
      "type": "function",
      "constant": true
    },
    {
      "inputs": [
        {
          "internalType": "address",
          "name": "to",
          "type": "address"
        },
        {
          "internalType": "uint256",
          "name": "tokenId",
          "type": "uint256"
        }
      ],
      "name": "approve",
      "outputs": [],
      "stateMutability": "nonpayable",
      "type": "function"
    },
    {
      "inputs": [
        {
          "internalType": "address",
          "name": "owner",
          "type": "address"
        }
      ],
      "name": "balanceOf",
      "outputs": [
        {
          "internalType": "uint256",
          "name": "",
          "type": "uint256"
        }
      ],
      "stateMutability": "view",
      "type": "function",
      "constant": true
    },
    {
      "inputs": [],
      "name": "baseTokenURI",
      "outputs": [
        {
          "internalType": "string",
          "name": "",
          "type": "string"
        }
      ],
      "stateMutability": "view",
      "type": "function",
      "constant": true
    },
    {
      "inputs": [
        {
          "internalType": "uint256",
          "name": "tokenId",
          "type": "uint256"
        }
      ],
      "name": "burn",
      "outputs": [],
      "stateMutability": "nonpayable",
      "type": "function"
    },
    {
      "inputs": [
        {
          "internalType": "uint256",
          "name": "tokenId",
          "type": "uint256"
        }
      ],
      "name": "getApproved",
      "outputs": [
        {
          "internalType": "address",
          "name": "",
          "type": "address"
        }
      ],
      "stateMutability": "view",
      "type": "function",
      "constant": true
    },
    {
      "inputs": [
        {
          "internalType": "address",
          "name": "owner",
          "type": "address"
        },
        {
          "internalType": "address",
          "name": "operator",
          "type": "address"
        }
      ],
      "name": "isApprovedForAll",
      "outputs": [
        {
          "internalType": "bool",
          "name": "",
          "type": "bool"
        }
      ],
      "stateMutability": "view",
      "type": "function",
      "constant": true
    },
    {
      "inputs": [],
      "name": "name",
      "outputs": [
        {
          "internalType": "string",
          "name": "",
          "type": "string"
        }
      ],
      "stateMutability": "view",
      "type": "function",
      "constant": true
    },
    {
      "inputs": [
        {
          "internalType": "uint256",
          "name": "",
          "type": "uint256"
        }
      ],
      "name": "nftList",
      "outputs": [
        {
          "internalType": "string",
          "name": "",
          "type": "string"
        }
      ],
      "stateMutability": "view",
      "type": "function",
      "constant": true
    },
    {
      "inputs": [
        {
          "internalType": "uint256",
          "name": "",
          "type": "uint256"
        }
      ],
      "name": "nftWords",
      "outputs": [
        {
          "internalType": "string",
          "name": "",
          "type": "string"
        }
      ],
      "stateMutability": "view",
      "type": "function",
      "constant": true
    },
    {
      "inputs": [],
      "name": "owner",
      "outputs": [
        {
          "internalType": "address",
          "name": "",
          "type": "address"
        }
      ],
      "stateMutability": "view",
      "type": "function",
      "constant": true
    },
    {
      "inputs": [
        {
          "internalType": "uint256",
          "name": "tokenId",
          "type": "uint256"
        }
      ],
      "name": "ownerOf",
      "outputs": [
        {
          "internalType": "address",
          "name": "",
          "type": "address"
        }
      ],
      "stateMutability": "view",
      "type": "function",
      "constant": true
    },
    {
      "inputs": [],
      "name": "paused",
      "outputs": [
        {
          "internalType": "bool",
          "name": "",
          "type": "bool"
        }
      ],
      "stateMutability": "view",
      "type": "function",
      "constant": true
    },
    {
      "inputs": [],
      "name": "publicMintStatus",
      "outputs": [
        {
          "internalType": "bool",
          "name": "",
          "type": "bool"
        }
      ],
      "stateMutability": "view",
      "type": "function",
      "constant": true
    },
    {
      "inputs": [],
      "name": "renounceOwnership",
      "outputs": [],
      "stateMutability": "nonpayable",
      "type": "function"
    },
    {
      "inputs": [
        {
          "internalType": "address",
          "name": "from",
          "type": "address"
        },
        {
          "internalType": "address",
          "name": "to",
          "type": "address"
        },
        {
          "internalType": "uint256",
          "name": "tokenId",
          "type": "uint256"
        }
      ],
      "name": "safeTransferFrom",
      "outputs": [],
      "stateMutability": "nonpayable",
      "type": "function"
    },
    {
      "inputs": [
        {
          "internalType": "address",
          "name": "from",
          "type": "address"
        },
        {
          "internalType": "address",
          "name": "to",
          "type": "address"
        },
        {
          "internalType": "uint256",
          "name": "tokenId",
          "type": "uint256"
        },
        {
          "internalType": "bytes",
          "name": "_data",
          "type": "bytes"
        }
      ],
      "name": "safeTransferFrom",
      "outputs": [],
      "stateMutability": "nonpayable",
      "type": "function"
    },
    {
      "inputs": [
        {
          "internalType": "address",
          "name": "operator",
          "type": "address"
        },
        {
          "internalType": "bool",
          "name": "approved",
          "type": "bool"
        }
      ],
      "name": "setApprovalForAll",
      "outputs": [],
      "stateMutability": "nonpayable",
      "type": "function"
    },
    {
      "inputs": [],
      "name": "symbol",
      "outputs": [
        {
          "internalType": "string",
          "name": "",
          "type": "string"
        }
      ],
      "stateMutability": "view",
      "type": "function",
      "constant": true
    },
    {
      "inputs": [
        {
          "internalType": "uint256",
          "name": "index",
          "type": "uint256"
        }
      ],
      "name": "tokenByIndex",
      "outputs": [
        {
          "internalType": "uint256",
          "name": "",
          "type": "uint256"
        }
      ],
      "stateMutability": "view",
      "type": "function",
      "constant": true
    },
    {
      "inputs": [
        {
          "internalType": "address",
          "name": "owner",
          "type": "address"
        },
        {
          "internalType": "uint256",
          "name": "index",
          "type": "uint256"
        }
      ],
      "name": "tokenOfOwnerByIndex",
      "outputs": [
        {
          "internalType": "uint256",
          "name": "",
          "type": "uint256"
        }
      ],
      "stateMutability": "view",
      "type": "function",
      "constant": true
    },
    {
      "inputs": [],
      "name": "totalSupply",
      "outputs": [
        {
          "internalType": "uint256",
          "name": "",
          "type": "uint256"
        }
      ],
      "stateMutability": "view",
      "type": "function",
      "constant": true
    },
    {
      "inputs": [
        {
          "internalType": "address",
          "name": "from",
          "type": "address"
        },
        {
          "internalType": "address",
          "name": "to",
          "type": "address"
        },
        {
          "internalType": "uint256",
          "name": "tokenId",
          "type": "uint256"
        }
      ],
      "name": "transferFrom",
      "outputs": [],
      "stateMutability": "nonpayable",
      "type": "function"
    },
    {
      "inputs": [
        {
          "internalType": "address",
          "name": "newOwner",
          "type": "address"
        }
      ],
      "name": "transferOwnership",
      "outputs": [],
      "stateMutability": "nonpayable",
      "type": "function"
    },
    {
      "inputs": [],
      "name": "walletRestriction",
      "outputs": [
        {
          "internalType": "bool",
          "name": "",
          "type": "bool"
        }
      ],
      "stateMutability": "view",
      "type": "function",
      "constant": true
    },
    {
      "inputs": [],
      "name": "walletRestrictionCount",
      "outputs": [
        {
          "internalType": "uint256",
          "name": "",
          "type": "uint256"
        }
      ],
      "stateMutability": "view",
      "type": "function",
      "constant": true
    },
    {
      "inputs": [],
      "name": "pause",
      "outputs": [],
      "stateMutability": "nonpayable",
      "type": "function"
    },
    {
      "inputs": [],
      "name": "unpause",
      "outputs": [],
      "stateMutability": "nonpayable",
      "type": "function"
    },
    {
      "inputs": [
        {
          "internalType": "string",
          "name": "baseURI",
          "type": "string"
        }
      ],
      "name": "setBaseURI",
      "outputs": [],
      "stateMutability": "nonpayable",
      "type": "function"
    },
    {
      "inputs": [
        {
          "internalType": "bool",
          "name": "_status",
          "type": "bool"
        }
      ],
      "name": "setPublicMint",
      "outputs": [],
      "stateMutability": "nonpayable",
      "type": "function"
    },
    {
      "inputs": [
        {
          "internalType": "uint256",
          "name": "_count",
          "type": "uint256"
        },
        {
          "internalType": "bool",
          "name": "_status",
          "type": "bool"
        }
      ],
      "name": "setWalletRestriction",
      "outputs": [],
      "stateMutability": "nonpayable",
      "type": "function"
    },
    {
      "inputs": [
        {
          "internalType": "uint256",
          "name": "_maxSupply",
          "type": "uint256"
        }
      ],
      "name": "setMaxSupply",
      "outputs": [],
      "stateMutability": "nonpayable",
      "type": "function"
    },
    {
      "inputs": [
        {
          "internalType": "uint256",
          "name": "_amount",
          "type": "uint256"
        }
      ],
      "name": "setNFTAmount",
      "outputs": [],
      "stateMutability": "nonpayable",
      "type": "function"
    },
    {
      "inputs": [
        {
          "internalType": "address",
          "name": "_to",
          "type": "address"
        },
        {
          "internalType": "string",
          "name": "_tokenURI",
          "type": "string"
        },
        {
          "internalType": "string",
          "name": "_nftWord",
          "type": "string"
        }
      ],
      "name": "safeMint",
      "outputs": [],
      "stateMutability": "nonpayable",
      "type": "function"
    },
    {
      "inputs": [
        {
          "internalType": "address",
          "name": "_to",
          "type": "address"
        },
        {
          "internalType": "string",
          "name": "_tokenURI",
          "type": "string"
        },
        {
          "internalType": "string",
          "name": "_nftWord",
          "type": "string"
        }
      ],
      "name": "publicMinting",
      "outputs": [],
      "stateMutability": "payable",
      "type": "function",
      "payable": true
    },
    {
      "inputs": [
        {
          "internalType": "uint256",
          "name": "tokenId",
          "type": "uint256"
        }
      ],
      "name": "burnToken",
      "outputs": [],
      "stateMutability": "nonpayable",
      "type": "function"
    },
    {
      "inputs": [
        {
          "internalType": "uint256",
          "name": "tokenId",
          "type": "uint256"
        }
      ],
      "name": "tokenURI",
      "outputs": [
        {
          "internalType": "string",
          "name": "",
          "type": "string"
        }
      ],
      "stateMutability": "view",
      "type": "function",
      "constant": true
    },
    {
      "inputs": [
        {
          "internalType": "bytes4",
          "name": "interfaceId",
          "type": "bytes4"
        }
      ],
      "name": "supportsInterface",
      "outputs": [
        {
          "internalType": "bool",
          "name": "",
          "type": "bool"
        }
      ],
      "stateMutability": "view",
      "type": "function",
      "constant": true
    }
  ],
  "bytecode": "0x60806040526001600c556001601260006101000a81548160ff0219169083151502179055506001601260016101000a81548160ff021916908315150217905550600a60135560006014553480156200005657600080fd5b50604051620057453803806200574583398181016040528101906200007c9190620005c7565b828281600090805190602001906200009692919062000315565b508060019080519060200190620000af92919062000315565b5050506000600b60006101000a81548160ff021916908315150217905550620000ed620000e16200010760201b60201c565b6200010f60201b60201c565b620000fe81620001d560201b60201c565b505050620007e1565b600033905090565b6000600b60019054906101000a900473ffffffffffffffffffffffffffffffffffffffff16905081600b60016101000a81548173ffffffffffffffffffffffffffffffffffffffff021916908373ffffffffffffffffffffffffffffffffffffffff1602179055508173ffffffffffffffffffffffffffffffffffffffff168173ffffffffffffffffffffffffffffffffffffffff167f8be0079c531659141344cd1fd0a4f28419497f9722a3daafe3b4186f6b6457e060405160405180910390a35050565b620001e56200010760201b60201c565b73ffffffffffffffffffffffffffffffffffffffff166200020b620002eb60201b60201c565b73ffffffffffffffffffffffffffffffffffffffff161462000264576040517f08c379a00000000000000000000000000000000000000000000000000000000081526004016200025b90620006c2565b60405180910390fd5b600073ffffffffffffffffffffffffffffffffffffffff168173ffffffffffffffffffffffffffffffffffffffff161415620002d7576040517f08c379a0000000000000000000000000000000000000000000000000000000008152600401620002ce906200075a565b60405180910390fd5b620002e8816200010f60201b60201c565b50565b6000600b60019054906101000a900473ffffffffffffffffffffffffffffffffffffffff16905090565b8280546200032390620007ab565b90600052602060002090601f01602090048101928262000347576000855562000393565b82601f106200036257805160ff191683800117855562000393565b8280016001018555821562000393579182015b828111156200039257825182559160200191906001019062000375565b5b509050620003a29190620003a6565b5090565b5b80821115620003c1576000816000905550600101620003a7565b5090565b6000604051905090565b600080fd5b600080fd5b600080fd5b600080fd5b6000601f19601f8301169050919050565b7f4e487b7100000000000000000000000000000000000000000000000000000000600052604160045260246000fd5b6200042e82620003e3565b810181811067ffffffffffffffff8211171562000450576200044f620003f4565b5b80604052505050565b600062000465620003c5565b905062000473828262000423565b919050565b600067ffffffffffffffff821115620004965762000495620003f4565b5b620004a182620003e3565b9050602081019050919050565b60005b83811015620004ce578082015181840152602081019050620004b1565b83811115620004de576000848401525b50505050565b6000620004fb620004f58462000478565b62000459565b9050828152602081018484840111156200051a5762000519620003de565b5b62000527848285620004ae565b509392505050565b600082601f830112620005475762000546620003d9565b5b815162000559848260208601620004e4565b91505092915050565b600073ffffffffffffffffffffffffffffffffffffffff82169050919050565b60006200058f8262000562565b9050919050565b620005a18162000582565b8114620005ad57600080fd5b50565b600081519050620005c18162000596565b92915050565b600080600060608486031215620005e357620005e2620003cf565b5b600084015167ffffffffffffffff811115620006045762000603620003d4565b5b62000612868287016200052f565b935050602084015167ffffffffffffffff811115620006365762000635620003d4565b5b62000644868287016200052f565b92505060406200065786828701620005b0565b9150509250925092565b600082825260208201905092915050565b7f4f776e61626c653a2063616c6c6572206973206e6f7420746865206f776e6572600082015250565b6000620006aa60208362000661565b9150620006b78262000672565b602082019050919050565b60006020820190508181036000830152620006dd816200069b565b9050919050565b7f4f776e61626c653a206e6577206f776e657220697320746865207a65726f206160008201527f6464726573730000000000000000000000000000000000000000000000000000602082015250565b60006200074260268362000661565b91506200074f82620006e4565b604082019050919050565b60006020820190508181036000830152620007758162000733565b9050919050565b7f4e487b7100000000000000000000000000000000000000000000000000000000600052602260045260246000fd5b60006002820490506001821680620007c457607f821691505b60208210811415620007db57620007da6200077c565b5b50919050565b614f5480620007f16000396000f3fe6080604052600436106102255760003560e01c8063715018a611610123578063aecfd252116100ab578063d66a1bb81161006f578063d66a1bb8146107f6578063e985e9c51461081f578063eca81d421461085c578063f2fde38b14610885578063fbefd647146108ae57610225565b8063aecfd252146106fd578063b8142b5814610728578063b88d4fde14610765578063c87b56dd1461078e578063d547cfb7146107cb57610225565b80638456cb59116100f25780638456cb591461063e5780638da5cb5b1461065557806395d89b4114610680578063960de829146106ab578063a22cb465146106d457610225565b8063715018a6146105a557806375bea166146105bc5780637950a74f146105f95780637b47ec1a1461061557610225565b806332cb6b0c116101b157806355f804b31161017557806355f804b3146104ae5780635c975abb146104d75780636352211e146105025780636f8b44b01461053f57806370a082311461056857610225565b806332cb6b0c146103dd5780633f4ba83a1461040857806342842e0e1461041f57806342966c68146104485780634f6ccce71461047157610225565b80630e2d56cf116101f85780630e2d56cf146102f857806318160ddd1461032157806323b872dd1461034c57806326202370146103755780632f745c59146103a057610225565b806301ffc9a71461022a57806306fdde0314610267578063081812fc14610292578063095ea7b3146102cf575b600080fd5b34801561023657600080fd5b50610251600480360381019061024c91906136bb565b6108d9565b60405161025e9190613703565b60405180910390f35b34801561027357600080fd5b5061027c6108eb565b60405161028991906137b7565b60405180910390f35b34801561029e57600080fd5b506102b960048036038101906102b4919061380f565b61097d565b6040516102c6919061387d565b60405180910390f35b3480156102db57600080fd5b506102f660048036038101906102f191906138c4565b610a02565b005b34801561030457600080fd5b5061031f600480360381019061031a9190613930565b610b1a565b005b34801561032d57600080fd5b50610336610bb3565b604051610343919061396c565b60405180910390f35b34801561035857600080fd5b50610373600480360381019061036e9190613987565b610bc0565b005b34801561038157600080fd5b5061038a610c20565b6040516103979190613703565b60405180910390f35b3480156103ac57600080fd5b506103c760048036038101906103c291906138c4565b610c33565b6040516103d4919061396c565b60405180910390f35b3480156103e957600080fd5b506103f2610cd8565b6040516103ff919061396c565b60405180910390f35b34801561041457600080fd5b5061041d610cde565b005b34801561042b57600080fd5b5061044660048036038101906104419190613987565b610d64565b005b34801561045457600080fd5b5061046f600480360381019061046a919061380f565b610d84565b005b34801561047d57600080fd5b506104986004803603810190610493919061380f565b610de0565b6040516104a5919061396c565b60405180910390f35b3480156104ba57600080fd5b506104d560048036038101906104d09190613b0f565b610e51565b005b3480156104e357600080fd5b506104ec610ee7565b6040516104f99190613703565b60405180910390f35b34801561050e57600080fd5b506105296004803603810190610524919061380f565b610efe565b604051610536919061387d565b60405180910390f35b34801561054b57600080fd5b506105666004803603810190610561919061380f565b610fb0565b005b34801561057457600080fd5b5061058f600480360381019061058a9190613b58565b611036565b60405161059c919061396c565b60405180910390f35b3480156105b157600080fd5b506105ba6110ee565b005b3480156105c857600080fd5b506105e360048036038101906105de919061380f565b611176565b6040516105f091906137b7565b60405180910390f35b610613600480360381019061060e9190613b85565b611222565b005b34801561062157600080fd5b5061063c6004803603810190610637919061380f565b611396565b005b34801561064a57600080fd5b5061065361141e565b005b34801561066157600080fd5b5061066a6114a4565b604051610677919061387d565b60405180910390f35b34801561068c57600080fd5b506106956114ce565b6040516106a291906137b7565b60405180910390f35b3480156106b757600080fd5b506106d260048036038101906106cd919061380f565b611560565b005b3480156106e057600080fd5b506106fb60048036038101906106f69190613c10565b6115e6565b005b34801561070957600080fd5b506107126115fc565b60405161071f919061396c565b60405180910390f35b34801561073457600080fd5b5061074f600480360381019061074a919061380f565b611602565b60405161075c91906137b7565b60405180910390f35b34801561077157600080fd5b5061078c60048036038101906107879190613cf1565b6116ae565b005b34801561079a57600080fd5b506107b560048036038101906107b0919061380f565b611710565b6040516107c291906137b7565b60405180910390f35b3480156107d757600080fd5b506107e0611722565b6040516107ed91906137b7565b60405180910390f35b34801561080257600080fd5b5061081d60048036038101906108189190613d74565b6117b0565b005b34801561082b57600080fd5b5061084660048036038101906108419190613db4565b611851565b6040516108539190613703565b60405180910390f35b34801561086857600080fd5b50610883600480360381019061087e9190613b85565b6118e5565b005b34801561089157600080fd5b506108ac60048036038101906108a79190613b58565b611aa9565b005b3480156108ba57600080fd5b506108c3611ba1565b6040516108d09190613703565b60405180910390f35b60006108e482611bb4565b9050919050565b6060600080546108fa90613e23565b80601f016020809104026020016040519081016040528092919081815260200182805461092690613e23565b80156109735780601f1061094857610100808354040283529160200191610973565b820191906000526020600020905b81548152906001019060200180831161095657829003601f168201915b5050505050905090565b600061098882611c2e565b6109c7576040517f08c379a00000000000000000000000000000000000000000000000000000000081526004016109be90613ec7565b60405180910390fd5b6004600083815260200190815260200160002060009054906101000a900473ffffffffffffffffffffffffffffffffffffffff169050919050565b6000610a0d82610efe565b90508073ffffffffffffffffffffffffffffffffffffffff168373ffffffffffffffffffffffffffffffffffffffff161415610a7e576040517f08c379a0000000000000000000000000000000000000000000000000000000008152600401610a7590613f59565b60405180910390fd5b8073ffffffffffffffffffffffffffffffffffffffff16610a9d611c9a565b73ffffffffffffffffffffffffffffffffffffffff161480610acc5750610acb81610ac6611c9a565b611851565b5b610b0b576040517f08c379a0000000000000000000000000000000000000000000000000000000008152600401610b0290613feb565b60405180910390fd5b610b158383611ca2565b505050565b610b22611c9a565b73ffffffffffffffffffffffffffffffffffffffff16610b406114a4565b73ffffffffffffffffffffffffffffffffffffffff1614610b96576040517f08c379a0000000000000000000000000000000000000000000000000000000008152600401610b8d90614057565b60405180910390fd5b80601260006101000a81548160ff02191690831515021790555050565b6000600880549050905090565b610bd1610bcb611c9a565b82611d5b565b610c10576040517f08c379a0000000000000000000000000000000000000000000000000000000008152600401610c07906140e9565b60405180910390fd5b610c1b838383611e39565b505050565b601260009054906101000a900460ff1681565b6000610c3e83611036565b8210610c7f576040517f08c379a0000000000000000000000000000000000000000000000000000000008152600401610c769061417b565b60405180910390fd5b600660008473ffffffffffffffffffffffffffffffffffffffff1673ffffffffffffffffffffffffffffffffffffffff168152602001908152602001600020600083815260200190815260200160002054905092915050565b60105481565b610ce6611c9a565b73ffffffffffffffffffffffffffffffffffffffff16610d046114a4565b73ffffffffffffffffffffffffffffffffffffffff1614610d5a576040517f08c379a0000000000000000000000000000000000000000000000000000000008152600401610d5190614057565b60405180910390fd5b610d62612095565b565b610d7f838383604051806020016040528060008152506116ae565b505050565b610d95610d8f611c9a565b82611d5b565b610dd4576040517f08c379a0000000000000000000000000000000000000000000000000000000008152600401610dcb9061420d565b60405180910390fd5b610ddd81612137565b50565b6000610dea610bb3565b8210610e2b576040517f08c379a0000000000000000000000000000000000000000000000000000000008152600401610e229061429f565b60405180910390fd5b60088281548110610e3f57610e3e6142bf565b5b90600052602060002001549050919050565b610e59611c9a565b73ffffffffffffffffffffffffffffffffffffffff16610e776114a4565b73ffffffffffffffffffffffffffffffffffffffff1614610ecd576040517f08c379a0000000000000000000000000000000000000000000000000000000008152600401610ec490614057565b60405180910390fd5b8060119080519060200190610ee392919061356c565b5050565b6000600b60009054906101000a900460ff16905090565b6000806002600084815260200190815260200160002060009054906101000a900473ffffffffffffffffffffffffffffffffffffffff169050600073ffffffffffffffffffffffffffffffffffffffff168173ffffffffffffffffffffffffffffffffffffffff161415610fa7576040517f08c379a0000000000000000000000000000000000000000000000000000000008152600401610f9e90614360565b60405180910390fd5b80915050919050565b610fb8611c9a565b73ffffffffffffffffffffffffffffffffffffffff16610fd66114a4565b73ffffffffffffffffffffffffffffffffffffffff161461102c576040517f08c379a000000000000000000000000000000000000000000000000000000000815260040161102390614057565b60405180910390fd5b8060108190555050565b60008073ffffffffffffffffffffffffffffffffffffffff168273ffffffffffffffffffffffffffffffffffffffff1614156110a7576040517f08c379a000000000000000000000000000000000000000000000000000000000815260040161109e906143f2565b60405180910390fd5b600360008373ffffffffffffffffffffffffffffffffffffffff1673ffffffffffffffffffffffffffffffffffffffff168152602001908152602001600020549050919050565b6110f6611c9a565b73ffffffffffffffffffffffffffffffffffffffff166111146114a4565b73ffffffffffffffffffffffffffffffffffffffff161461116a576040517f08c379a000000000000000000000000000000000000000000000000000000000815260040161116190614057565b60405180910390fd5b61117460006121bf565b565b600d818154811061118657600080fd5b9060005260206000200160009150905080546111a190613e23565b80601f01602080910402602001604051908101604052809291908181526020018280546111cd90613e23565b801561121a5780601f106111ef5761010080835404028352916020019161121a565b820191906000526020600020905b8154815290600101906020018083116111fd57829003601f168201915b505050505081565b601260009054906101000a900460ff16611271576040517f08c379a00000000000000000000000000000000000000000000000000000000081526004016112689061445e565b60405180910390fd5b60135461127d84611036565b106112bd576040517f08c379a00000000000000000000000000000000000000000000000000000000081526004016112b4906144ca565b60405180910390fd5b600e826040516112cd9190614526565b908152602001604051809103902060009054906101000a900460ff16156112f357600080fd5b346014541115611338576040517f08c379a000000000000000000000000000000000000000000000000000000000815260040161132f90614589565b60405180910390fd5b6113406114a4565b73ffffffffffffffffffffffffffffffffffffffff166108fc349081150290604051600060405180830381858888f19350505050158015611385573d6000803e3d6000fd5b50611391838383612285565b505050565b61139e611c9a565b73ffffffffffffffffffffffffffffffffffffffff166113bc6114a4565b73ffffffffffffffffffffffffffffffffffffffff1614611412576040517f08c379a000000000000000000000000000000000000000000000000000000000815260040161140990614057565b60405180910390fd5b61141b81612137565b50565b611426611c9a565b73ffffffffffffffffffffffffffffffffffffffff166114446114a4565b73ffffffffffffffffffffffffffffffffffffffff161461149a576040517f08c379a000000000000000000000000000000000000000000000000000000000815260040161149190614057565b60405180910390fd5b6114a2612397565b565b6000600b60019054906101000a900473ffffffffffffffffffffffffffffffffffffffff16905090565b6060600180546114dd90613e23565b80601f016020809104026020016040519081016040528092919081815260200182805461150990613e23565b80156115565780601f1061152b57610100808354040283529160200191611556565b820191906000526020600020905b81548152906001019060200180831161153957829003601f168201915b5050505050905090565b611568611c9a565b73ffffffffffffffffffffffffffffffffffffffff166115866114a4565b73ffffffffffffffffffffffffffffffffffffffff16146115dc576040517f08c379a00000000000000000000000000000000000000000000000000000000081526004016115d390614057565b60405180910390fd5b8060148190555050565b6115f86115f1611c9a565b838361243a565b5050565b60135481565b600f818154811061161257600080fd5b90600052602060002001600091509050805461162d90613e23565b80601f016020809104026020016040519081016040528092919081815260200182805461165990613e23565b80156116a65780601f1061167b576101008083540402835291602001916116a6565b820191906000526020600020905b81548152906001019060200180831161168957829003601f168201915b505050505081565b6116bf6116b9611c9a565b83611d5b565b6116fe576040517f08c379a00000000000000000000000000000000000000000000000000000000081526004016116f5906140e9565b60405180910390fd5b61170a848484846125a7565b50505050565b606061171b82612603565b9050919050565b6011805461172f90613e23565b80601f016020809104026020016040519081016040528092919081815260200182805461175b90613e23565b80156117a85780601f1061177d576101008083540402835291602001916117a8565b820191906000526020600020905b81548152906001019060200180831161178b57829003601f168201915b505050505081565b6117b8611c9a565b73ffffffffffffffffffffffffffffffffffffffff166117d66114a4565b73ffffffffffffffffffffffffffffffffffffffff161461182c576040517f08c379a000000000000000000000000000000000000000000000000000000000815260040161182390614057565b60405180910390fd5b80601260016101000a81548160ff021916908315150217905550816013819055505050565b6000600560008473ffffffffffffffffffffffffffffffffffffffff1673ffffffffffffffffffffffffffffffffffffffff16815260200190815260200160002060008373ffffffffffffffffffffffffffffffffffffffff1673ffffffffffffffffffffffffffffffffffffffff16815260200190815260200160002060009054906101000a900460ff16905092915050565b6118ed611c9a565b73ffffffffffffffffffffffffffffffffffffffff1661190b6114a4565b73ffffffffffffffffffffffffffffffffffffffff1614611961576040517f08c379a000000000000000000000000000000000000000000000000000000000815260040161195890614057565b60405180910390fd5b600e826040516119719190614526565b908152602001604051809103902060009054906101000a900460ff161561199757600080fd5b600d829080600181540180825580915050600190039060005260206000200160009091909190915090805190602001906119d292919061356c565b506000600c5490506119e48482612755565b6001600c546119f391906145d8565b600c819055506001600e84604051611a0b9190614526565b908152602001604051809103902060006101000a81548160ff021916908315150217905550611a3a8184612773565b600f82908060018154018082558091505060019003906000526020600020016000909190919091509080519060200190611a7592919061356c565b50807f868e9de6abc8c5ae1ebbe366ce426373caff3039e8a7c8499bd9b9e02ffff64760405160405180910390a250505050565b611ab1611c9a565b73ffffffffffffffffffffffffffffffffffffffff16611acf6114a4565b73ffffffffffffffffffffffffffffffffffffffff1614611b25576040517f08c379a0000000000000000000000000000000000000000000000000000000008152600401611b1c90614057565b60405180910390fd5b600073ffffffffffffffffffffffffffffffffffffffff168173ffffffffffffffffffffffffffffffffffffffff161415611b95576040517f08c379a0000000000000000000000000000000000000000000000000000000008152600401611b8c906146a0565b60405180910390fd5b611b9e816121bf565b50565b601260019054906101000a900460ff1681565b60007f780e9d63000000000000000000000000000000000000000000000000000000007bffffffffffffffffffffffffffffffffffffffffffffffffffffffff1916827bffffffffffffffffffffffffffffffffffffffffffffffffffffffff19161480611c275750611c26826127e7565b5b9050919050565b60008073ffffffffffffffffffffffffffffffffffffffff166002600084815260200190815260200160002060009054906101000a900473ffffffffffffffffffffffffffffffffffffffff1673ffffffffffffffffffffffffffffffffffffffff1614159050919050565b600033905090565b816004600083815260200190815260200160002060006101000a81548173ffffffffffffffffffffffffffffffffffffffff021916908373ffffffffffffffffffffffffffffffffffffffff160217905550808273ffffffffffffffffffffffffffffffffffffffff16611d1583610efe565b73ffffffffffffffffffffffffffffffffffffffff167f8c5be1e5ebec7d5bd14f71427d1e84f3dd0314c0f7b2291e5b200ac8c7c3b92560405160405180910390a45050565b6000611d6682611c2e565b611da5576040517f08c379a0000000000000000000000000000000000000000000000000000000008152600401611d9c90614732565b60405180910390fd5b6000611db083610efe565b90508073ffffffffffffffffffffffffffffffffffffffff168473ffffffffffffffffffffffffffffffffffffffff161480611e1f57508373ffffffffffffffffffffffffffffffffffffffff16611e078461097d565b73ffffffffffffffffffffffffffffffffffffffff16145b80611e305750611e2f8185611851565b5b91505092915050565b8273ffffffffffffffffffffffffffffffffffffffff16611e5982610efe565b73ffffffffffffffffffffffffffffffffffffffff1614611eaf576040517f08c379a0000000000000000000000000000000000000000000000000000000008152600401611ea6906147c4565b60405180910390fd5b600073ffffffffffffffffffffffffffffffffffffffff168273ffffffffffffffffffffffffffffffffffffffff161415611f1f576040517f08c379a0000000000000000000000000000000000000000000000000000000008152600401611f1690614856565b60405180910390fd5b611f2a8383836128c9565b611f35600082611ca2565b6001600360008573ffffffffffffffffffffffffffffffffffffffff1673ffffffffffffffffffffffffffffffffffffffff1681526020019081526020016000206000828254611f859190614876565b925050819055506001600360008473ffffffffffffffffffffffffffffffffffffffff1673ffffffffffffffffffffffffffffffffffffffff1681526020019081526020016000206000828254611fdc91906145d8565b92505081905550816002600083815260200190815260200160002060006101000a81548173ffffffffffffffffffffffffffffffffffffffff021916908373ffffffffffffffffffffffffffffffffffffffff160217905550808273ffffffffffffffffffffffffffffffffffffffff168473ffffffffffffffffffffffffffffffffffffffff167fddf252ad1be2c89b69c2b068fc378daa952ba7f163c4a11628f55a4df523b3ef60405160405180910390a4505050565b61209d610ee7565b6120dc576040517f08c379a00000000000000000000000000000000000000000000000000000000081526004016120d3906148f6565b60405180910390fd5b6000600b60006101000a81548160ff0219169083151502179055507f5db9ee0a495bf2e6ff9c91a7834c1ba4fdd244a5e8aa4e537bd38aeae4b073aa612120611c9a565b60405161212d919061387d565b60405180910390a1565b61213f611c9a565b73ffffffffffffffffffffffffffffffffffffffff1661215d6114a4565b73ffffffffffffffffffffffffffffffffffffffff16146121b3576040517f08c379a00000000000000000000000000000000000000000000000000000000081526004016121aa90614057565b60405180910390fd5b6121bc81612921565b50565b6000600b60019054906101000a900473ffffffffffffffffffffffffffffffffffffffff16905081600b60016101000a81548173ffffffffffffffffffffffffffffffffffffffff021916908373ffffffffffffffffffffffffffffffffffffffff1602179055508173ffffffffffffffffffffffffffffffffffffffff168173ffffffffffffffffffffffffffffffffffffffff167f8be0079c531659141344cd1fd0a4f28419497f9722a3daafe3b4186f6b6457e060405160405180910390a35050565b600d829080600181540180825580915050600190039060005260206000200160009091909190915090805190602001906122c092919061356c565b506000600c5490506122d28482612755565b6001600c546122e191906145d8565b600c819055506001600e846040516122f99190614526565b908152602001604051809103902060006101000a81548160ff0219169083151502179055506123288184612773565b600f8290806001815401808255809150506001900390600052602060002001600090919091909150908051906020019061236392919061356c565b50807f868e9de6abc8c5ae1ebbe366ce426373caff3039e8a7c8499bd9b9e02ffff64760405160405180910390a250505050565b61239f610ee7565b156123df576040517f08c379a00000000000000000000000000000000000000000000000000000000081526004016123d690614962565b60405180910390fd5b6001600b60006101000a81548160ff0219169083151502179055507f62e78cea01bee320cd4e420270b5ea74000d11b0c9f74754ebdbfc544b05a258612423611c9a565b604051612430919061387d565b60405180910390a1565b8173ffffffffffffffffffffffffffffffffffffffff168373ffffffffffffffffffffffffffffffffffffffff1614156124a9576040517f08c379a00000000000000000000000000000000000000000000000000000000081526004016124a0906149ce565b60405180910390fd5b80600560008573ffffffffffffffffffffffffffffffffffffffff1673ffffffffffffffffffffffffffffffffffffffff16815260200190815260200160002060008473ffffffffffffffffffffffffffffffffffffffff1673ffffffffffffffffffffffffffffffffffffffff16815260200190815260200160002060006101000a81548160ff0219169083151502179055508173ffffffffffffffffffffffffffffffffffffffff168373ffffffffffffffffffffffffffffffffffffffff167f17307eab39ab6107e8899845ad3d59bd9653f200f220920489ca2b5937696c318360405161259a9190613703565b60405180910390a3505050565b6125b2848484611e39565b6125be84848484612974565b6125fd576040517f08c379a00000000000000000000000000000000000000000000000000000000081526004016125f490614a60565b60405180910390fd5b50505050565b606061260e82611c2e565b61264d576040517f08c379a000000000000000000000000000000000000000000000000000000000815260040161264490614af2565b60405180910390fd5b6000600a6000848152602001908152602001600020805461266d90613e23565b80601f016020809104026020016040519081016040528092919081815260200182805461269990613e23565b80156126e65780601f106126bb576101008083540402835291602001916126e6565b820191906000526020600020905b8154815290600101906020018083116126c957829003601f168201915b5050505050905060006126f7612afc565b905060008151141561270d578192505050612750565b60008251111561274257808260405160200161272a929190614b12565b60405160208183030381529060405292505050612750565b61274b84612b8e565b925050505b919050565b61276f828260405180602001604052806000815250612c35565b5050565b61277c82611c2e565b6127bb576040517f08c379a00000000000000000000000000000000000000000000000000000000081526004016127b290614ba8565b60405180910390fd5b80600a600084815260200190815260200160002090805190602001906127e292919061356c565b505050565b60007f80ac58cd000000000000000000000000000000000000000000000000000000007bffffffffffffffffffffffffffffffffffffffffffffffffffffffff1916827bffffffffffffffffffffffffffffffffffffffffffffffffffffffff191614806128b257507f5b5e139f000000000000000000000000000000000000000000000000000000007bffffffffffffffffffffffffffffffffffffffffffffffffffffffff1916827bffffffffffffffffffffffffffffffffffffffffffffffffffffffff1916145b806128c257506128c182612c90565b5b9050919050565b6128d1610ee7565b15612911576040517f08c379a000000000000000000000000000000000000000000000000000000000815260040161290890614962565b60405180910390fd5b61291c838383612cfa565b505050565b61292a81612e0e565b6000600a6000838152602001908152602001600020805461294a90613e23565b90501461297157600a6000828152602001908152602001600020600061297091906135f2565b5b50565b60006129958473ffffffffffffffffffffffffffffffffffffffff16612f1f565b15612aef578373ffffffffffffffffffffffffffffffffffffffff1663150b7a026129be611c9a565b8786866040518563ffffffff1660e01b81526004016129e09493929190614c1d565b6020604051808303816000875af1925050508015612a1c57506040513d601f19601f82011682018060405250810190612a199190614c7e565b60015b612a9f573d8060008114612a4c576040519150601f19603f3d011682016040523d82523d6000602084013e612a51565b606091505b50600081511415612a97576040517f08c379a0000000000000000000000000000000000000000000000000000000008152600401612a8e90614a60565b60405180910390fd5b805181602001fd5b63150b7a0260e01b7bffffffffffffffffffffffffffffffffffffffffffffffffffffffff1916817bffffffffffffffffffffffffffffffffffffffffffffffffffffffff191614915050612af4565b600190505b949350505050565b606060118054612b0b90613e23565b80601f0160208091040260200160405190810160405280929190818152602001828054612b3790613e23565b8015612b845780601f10612b5957610100808354040283529160200191612b84565b820191906000526020600020905b815481529060010190602001808311612b6757829003601f168201915b5050505050905090565b6060612b9982611c2e565b612bd8576040517f08c379a0000000000000000000000000000000000000000000000000000000008152600401612bcf90614d1d565b60405180910390fd5b6000612be2612afc565b90506000815111612c025760405180602001604052806000815250612c2d565b80612c0c84612f32565b604051602001612c1d929190614b12565b6040516020818303038152906040525b915050919050565b612c3f8383613093565b612c4c6000848484612974565b612c8b576040517f08c379a0000000000000000000000000000000000000000000000000000000008152600401612c8290614a60565b60405180910390fd5b505050565b60007f01ffc9a7000000000000000000000000000000000000000000000000000000007bffffffffffffffffffffffffffffffffffffffffffffffffffffffff1916827bffffffffffffffffffffffffffffffffffffffffffffffffffffffff1916149050919050565b612d05838383613261565b600073ffffffffffffffffffffffffffffffffffffffff168373ffffffffffffffffffffffffffffffffffffffff161415612d4857612d4381613266565b612d87565b8173ffffffffffffffffffffffffffffffffffffffff168373ffffffffffffffffffffffffffffffffffffffff1614612d8657612d8583826132af565b5b5b600073ffffffffffffffffffffffffffffffffffffffff168273ffffffffffffffffffffffffffffffffffffffff161415612dca57612dc58161341c565b612e09565b8273ffffffffffffffffffffffffffffffffffffffff168273ffffffffffffffffffffffffffffffffffffffff1614612e0857612e0782826134ed565b5b5b505050565b6000612e1982610efe565b9050612e27816000846128c9565b612e32600083611ca2565b6001600360008373ffffffffffffffffffffffffffffffffffffffff1673ffffffffffffffffffffffffffffffffffffffff1681526020019081526020016000206000828254612e829190614876565b925050819055506002600083815260200190815260200160002060006101000a81549073ffffffffffffffffffffffffffffffffffffffff021916905581600073ffffffffffffffffffffffffffffffffffffffff168273ffffffffffffffffffffffffffffffffffffffff167fddf252ad1be2c89b69c2b068fc378daa952ba7f163c4a11628f55a4df523b3ef60405160405180910390a45050565b600080823b905060008111915050919050565b60606000821415612f7a576040518060400160405280600181526020017f3000000000000000000000000000000000000000000000000000000000000000815250905061308e565b600082905060005b60008214612fac578080612f9590614d3d565b915050600a82612fa59190614db5565b9150612f82565b60008167ffffffffffffffff811115612fc857612fc76139e4565b5b6040519080825280601f01601f191660200182016040528015612ffa5781602001600182028036833780820191505090505b5090505b60008514613087576001826130139190614876565b9150600a856130229190614de6565b603061302e91906145d8565b60f81b818381518110613044576130436142bf565b5b60200101907effffffffffffffffffffffffffffffffffffffffffffffffffffffffffffff1916908160001a905350600a856130809190614db5565b9450612ffe565b8093505050505b919050565b600073ffffffffffffffffffffffffffffffffffffffff168273ffffffffffffffffffffffffffffffffffffffff161415613103576040517f08c379a00000000000000000000000000000000000000000000000000000000081526004016130fa90614e63565b60405180910390fd5b61310c81611c2e565b1561314c576040517f08c379a000000000000000000000000000000000000000000000000000000000815260040161314390614ecf565b60405180910390fd5b613158600083836128c9565b6001600360008473ffffffffffffffffffffffffffffffffffffffff1673ffffffffffffffffffffffffffffffffffffffff16815260200190815260200160002060008282546131a891906145d8565b92505081905550816002600083815260200190815260200160002060006101000a81548173ffffffffffffffffffffffffffffffffffffffff021916908373ffffffffffffffffffffffffffffffffffffffff160217905550808273ffffffffffffffffffffffffffffffffffffffff16600073ffffffffffffffffffffffffffffffffffffffff167fddf252ad1be2c89b69c2b068fc378daa952ba7f163c4a11628f55a4df523b3ef60405160405180910390a45050565b505050565b6008805490506009600083815260200190815260200160002081905550600881908060018154018082558091505060019003906000526020600020016000909190919091505550565b600060016132bc84611036565b6132c69190614876565b90506000600760008481526020019081526020016000205490508181146133ab576000600660008673ffffffffffffffffffffffffffffffffffffffff1673ffffffffffffffffffffffffffffffffffffffff168152602001908152602001600020600084815260200190815260200160002054905080600660008773ffffffffffffffffffffffffffffffffffffffff1673ffffffffffffffffffffffffffffffffffffffff168152602001908152602001600020600084815260200190815260200160002081905550816007600083815260200190815260200160002081905550505b6007600084815260200190815260200160002060009055600660008573ffffffffffffffffffffffffffffffffffffffff1673ffffffffffffffffffffffffffffffffffffffff16815260200190815260200160002060008381526020019081526020016000206000905550505050565b600060016008805490506134309190614876565b90506000600960008481526020019081526020016000205490506000600883815481106134605761345f6142bf565b5b906000526020600020015490508060088381548110613482576134816142bf565b5b9060005260206000200181905550816009600083815260200190815260200160002081905550600960008581526020019081526020016000206000905560088054806134d1576134d0614eef565b5b6001900381819060005260206000200160009055905550505050565b60006134f883611036565b905081600660008573ffffffffffffffffffffffffffffffffffffffff1673ffffffffffffffffffffffffffffffffffffffff168152602001908152602001600020600083815260200190815260200160002081905550806007600084815260200190815260200160002081905550505050565b82805461357890613e23565b90600052602060002090601f01602090048101928261359a57600085556135e1565b82601f106135b357805160ff19168380011785556135e1565b828001600101855582156135e1579182015b828111156135e05782518255916020019190600101906135c5565b5b5090506135ee9190613632565b5090565b5080546135fe90613e23565b6000825580601f10613610575061362f565b601f01602090049060005260206000209081019061362e9190613632565b5b50565b5b8082111561364b576000816000905550600101613633565b5090565b6000604051905090565b600080fd5b600080fd5b60007fffffffff0000000000000000000000000000000000000000000000000000000082169050919050565b61369881613663565b81146136a357600080fd5b50565b6000813590506136b58161368f565b92915050565b6000602082840312156136d1576136d0613659565b5b60006136df848285016136a6565b91505092915050565b60008115159050919050565b6136fd816136e8565b82525050565b600060208201905061371860008301846136f4565b92915050565b600081519050919050565b600082825260208201905092915050565b60005b8381101561375857808201518184015260208101905061373d565b83811115613767576000848401525b50505050565b6000601f19601f8301169050919050565b60006137898261371e565b6137938185613729565b93506137a381856020860161373a565b6137ac8161376d565b840191505092915050565b600060208201905081810360008301526137d1818461377e565b905092915050565b6000819050919050565b6137ec816137d9565b81146137f757600080fd5b50565b600081359050613809816137e3565b92915050565b60006020828403121561382557613824613659565b5b6000613833848285016137fa565b91505092915050565b600073ffffffffffffffffffffffffffffffffffffffff82169050919050565b60006138678261383c565b9050919050565b6138778161385c565b82525050565b6000602082019050613892600083018461386e565b92915050565b6138a18161385c565b81146138ac57600080fd5b50565b6000813590506138be81613898565b92915050565b600080604083850312156138db576138da613659565b5b60006138e9858286016138af565b92505060206138fa858286016137fa565b9150509250929050565b61390d816136e8565b811461391857600080fd5b50565b60008135905061392a81613904565b92915050565b60006020828403121561394657613945613659565b5b60006139548482850161391b565b91505092915050565b613966816137d9565b82525050565b6000602082019050613981600083018461395d565b92915050565b6000806000606084860312156139a05761399f613659565b5b60006139ae868287016138af565b93505060206139bf868287016138af565b92505060406139d0868287016137fa565b9150509250925092565b600080fd5b600080fd5b7f4e487b7100000000000000000000000000000000000000000000000000000000600052604160045260246000fd5b613a1c8261376d565b810181811067ffffffffffffffff82111715613a3b57613a3a6139e4565b5b80604052505050565b6000613a4e61364f565b9050613a5a8282613a13565b919050565b600067ffffffffffffffff821115613a7a57613a796139e4565b5b613a838261376d565b9050602081019050919050565b82818337600083830152505050565b6000613ab2613aad84613a5f565b613a44565b905082815260208101848484011115613ace57613acd6139df565b5b613ad9848285613a90565b509392505050565b600082601f830112613af657613af56139da565b5b8135613b06848260208601613a9f565b91505092915050565b600060208284031215613b2557613b24613659565b5b600082013567ffffffffffffffff811115613b4357613b4261365e565b5b613b4f84828501613ae1565b91505092915050565b600060208284031215613b6e57613b6d613659565b5b6000613b7c848285016138af565b91505092915050565b600080600060608486031215613b9e57613b9d613659565b5b6000613bac868287016138af565b935050602084013567ffffffffffffffff811115613bcd57613bcc61365e565b5b613bd986828701613ae1565b925050604084013567ffffffffffffffff811115613bfa57613bf961365e565b5b613c0686828701613ae1565b9150509250925092565b60008060408385031215613c2757613c26613659565b5b6000613c35858286016138af565b9250506020613c468582860161391b565b9150509250929050565b600067ffffffffffffffff821115613c6b57613c6a6139e4565b5b613c748261376d565b9050602081019050919050565b6000613c94613c8f84613c50565b613a44565b905082815260208101848484011115613cb057613caf6139df565b5b613cbb848285613a90565b509392505050565b600082601f830112613cd857613cd76139da565b5b8135613ce8848260208601613c81565b91505092915050565b60008060008060808587031215613d0b57613d0a613659565b5b6000613d19878288016138af565b9450506020613d2a878288016138af565b9350506040613d3b878288016137fa565b925050606085013567ffffffffffffffff811115613d5c57613d5b61365e565b5b613d6887828801613cc3565b91505092959194509250565b60008060408385031215613d8b57613d8a613659565b5b6000613d99858286016137fa565b9250506020613daa8582860161391b565b9150509250929050565b60008060408385031215613dcb57613dca613659565b5b6000613dd9858286016138af565b9250506020613dea858286016138af565b9150509250929050565b7f4e487b7100000000000000000000000000000000000000000000000000000000600052602260045260246000fd5b60006002820490506001821680613e3b57607f821691505b60208210811415613e4f57613e4e613df4565b5b50919050565b7f4552433732313a20617070726f76656420717565727920666f72206e6f6e657860008201527f697374656e7420746f6b656e0000000000000000000000000000000000000000602082015250565b6000613eb1602c83613729565b9150613ebc82613e55565b604082019050919050565b60006020820190508181036000830152613ee081613ea4565b9050919050565b7f4552433732313a20617070726f76616c20746f2063757272656e74206f776e6560008201527f7200000000000000000000000000000000000000000000000000000000000000602082015250565b6000613f43602183613729565b9150613f4e82613ee7565b604082019050919050565b60006020820190508181036000830152613f7281613f36565b9050919050565b7f4552433732313a20617070726f76652063616c6c6572206973206e6f74206f7760008201527f6e6572206e6f7220617070726f76656420666f7220616c6c0000000000000000602082015250565b6000613fd5603883613729565b9150613fe082613f79565b604082019050919050565b6000602082019050818103600083015261400481613fc8565b9050919050565b7f4f776e61626c653a2063616c6c6572206973206e6f7420746865206f776e6572600082015250565b6000614041602083613729565b915061404c8261400b565b602082019050919050565b6000602082019050818103600083015261407081614034565b9050919050565b7f4552433732313a207472616e736665722063616c6c6572206973206e6f74206f60008201527f776e6572206e6f7220617070726f766564000000000000000000000000000000602082015250565b60006140d3603183613729565b91506140de82614077565b604082019050919050565b60006020820190508181036000830152614102816140c6565b9050919050565b7f455243373231456e756d657261626c653a206f776e657220696e646578206f7560008201527f74206f6620626f756e6473000000000000000000000000000000000000000000602082015250565b6000614165602b83613729565b915061417082614109565b604082019050919050565b6000602082019050818103600083015261419481614158565b9050919050565b7f4552433732314275726e61626c653a2063616c6c6572206973206e6f74206f7760008201527f6e6572206e6f7220617070726f76656400000000000000000000000000000000602082015250565b60006141f7603083613729565b91506142028261419b565b604082019050919050565b60006020820190508181036000830152614226816141ea565b9050919050565b7f455243373231456e756d657261626c653a20676c6f62616c20696e646578206f60008201527f7574206f6620626f756e64730000000000000000000000000000000000000000602082015250565b6000614289602c83613729565b91506142948261422d565b604082019050919050565b600060208201905081810360008301526142b88161427c565b9050919050565b7f4e487b7100000000000000000000000000000000000000000000000000000000600052603260045260246000fd5b7f4552433732313a206f776e657220717565727920666f72206e6f6e657869737460008201527f656e7420746f6b656e0000000000000000000000000000000000000000000000602082015250565b600061434a602983613729565b9150614355826142ee565b604082019050919050565b600060208201905081810360008301526143798161433d565b9050919050565b7f4552433732313a2062616c616e636520717565727920666f7220746865207a6560008201527f726f206164647265737300000000000000000000000000000000000000000000602082015250565b60006143dc602a83613729565b91506143e782614380565b604082019050919050565b6000602082019050818103600083015261440b816143cf565b9050919050565b7f5075626c6963206d696e74206973206e6f7420656e61626c65642e2e00000000600082015250565b6000614448601c83613729565b915061445382614412565b602082019050919050565b600060208201905081810360008301526144778161443b565b9050919050565b7f416c7265616479206d696e74656420796f7572204e46542e0000000000000000600082015250565b60006144b4601883613729565b91506144bf8261447e565b602082019050919050565b600060208201905081810360008301526144e3816144a7565b9050919050565b600081905092915050565b60006145008261371e565b61450a81856144ea565b935061451a81856020860161373a565b80840191505092915050565b600061453282846144f5565b915081905092915050565b7f4d696e74696e6720666565206973206e6f7420636f72726563742e2e00000000600082015250565b6000614573601c83613729565b915061457e8261453d565b602082019050919050565b600060208201905081810360008301526145a281614566565b9050919050565b7f4e487b7100000000000000000000000000000000000000000000000000000000600052601160045260246000fd5b60006145e3826137d9565b91506145ee836137d9565b9250827fffffffffffffffffffffffffffffffffffffffffffffffffffffffffffffffff03821115614623576146226145a9565b5b828201905092915050565b7f4f776e61626c653a206e6577206f776e657220697320746865207a65726f206160008201527f6464726573730000000000000000000000000000000000000000000000000000602082015250565b600061468a602683613729565b91506146958261462e565b604082019050919050565b600060208201905081810360008301526146b98161467d565b9050919050565b7f4552433732313a206f70657261746f7220717565727920666f72206e6f6e657860008201527f697374656e7420746f6b656e0000000000000000000000000000000000000000602082015250565b600061471c602c83613729565b9150614727826146c0565b604082019050919050565b6000602082019050818103600083015261474b8161470f565b9050919050565b7f4552433732313a207472616e73666572206f6620746f6b656e2074686174206960008201527f73206e6f74206f776e0000000000000000000000000000000000000000000000602082015250565b60006147ae602983613729565b91506147b982614752565b604082019050919050565b600060208201905081810360008301526147dd816147a1565b9050919050565b7f4552433732313a207472616e7366657220746f20746865207a65726f2061646460008201527f7265737300000000000000000000000000000000000000000000000000000000602082015250565b6000614840602483613729565b915061484b826147e4565b604082019050919050565b6000602082019050818103600083015261486f81614833565b9050919050565b6000614881826137d9565b915061488c836137d9565b92508282101561489f5761489e6145a9565b5b828203905092915050565b7f5061757361626c653a206e6f7420706175736564000000000000000000000000600082015250565b60006148e0601483613729565b91506148eb826148aa565b602082019050919050565b6000602082019050818103600083015261490f816148d3565b9050919050565b7f5061757361626c653a2070617573656400000000000000000000000000000000600082015250565b600061494c601083613729565b915061495782614916565b602082019050919050565b6000602082019050818103600083015261497b8161493f565b9050919050565b7f4552433732313a20617070726f766520746f2063616c6c657200000000000000600082015250565b60006149b8601983613729565b91506149c382614982565b602082019050919050565b600060208201905081810360008301526149e7816149ab565b9050919050565b7f4552433732313a207472616e7366657220746f206e6f6e20455243373231526560008201527f63656976657220696d706c656d656e7465720000000000000000000000000000602082015250565b6000614a4a603283613729565b9150614a55826149ee565b604082019050919050565b60006020820190508181036000830152614a7981614a3d565b9050919050565b7f45524337323155524953746f726167653a2055524920717565727920666f722060008201527f6e6f6e6578697374656e7420746f6b656e000000000000000000000000000000602082015250565b6000614adc603183613729565b9150614ae782614a80565b604082019050919050565b60006020820190508181036000830152614b0b81614acf565b9050919050565b6000614b1e82856144f5565b9150614b2a82846144f5565b91508190509392505050565b7f45524337323155524953746f726167653a2055524920736574206f66206e6f6e60008201527f6578697374656e7420746f6b656e000000000000000000000000000000000000602082015250565b6000614b92602e83613729565b9150614b9d82614b36565b604082019050919050565b60006020820190508181036000830152614bc181614b85565b9050919050565b600081519050919050565b600082825260208201905092915050565b6000614bef82614bc8565b614bf98185614bd3565b9350614c0981856020860161373a565b614c128161376d565b840191505092915050565b6000608082019050614c32600083018761386e565b614c3f602083018661386e565b614c4c604083018561395d565b8181036060830152614c5e8184614be4565b905095945050505050565b600081519050614c788161368f565b92915050565b600060208284031215614c9457614c93613659565b5b6000614ca284828501614c69565b91505092915050565b7f4552433732314d657461646174613a2055524920717565727920666f72206e6f60008201527f6e6578697374656e7420746f6b656e0000000000000000000000000000000000602082015250565b6000614d07602f83613729565b9150614d1282614cab565b604082019050919050565b60006020820190508181036000830152614d3681614cfa565b9050919050565b6000614d48826137d9565b91507fffffffffffffffffffffffffffffffffffffffffffffffffffffffffffffffff821415614d7b57614d7a6145a9565b5b600182019050919050565b7f4e487b7100000000000000000000000000000000000000000000000000000000600052601260045260246000fd5b6000614dc0826137d9565b9150614dcb836137d9565b925082614ddb57614dda614d86565b5b828204905092915050565b6000614df1826137d9565b9150614dfc836137d9565b925082614e0c57614e0b614d86565b5b828206905092915050565b7f4552433732313a206d696e7420746f20746865207a65726f2061646472657373600082015250565b6000614e4d602083613729565b9150614e5882614e17565b602082019050919050565b60006020820190508181036000830152614e7c81614e40565b9050919050565b7f4552433732313a20746f6b656e20616c7265616479206d696e74656400000000600082015250565b6000614eb9601c83613729565b9150614ec482614e83565b602082019050919050565b60006020820190508181036000830152614ee881614eac565b9050919050565b7f4e487b7100000000000000000000000000000000000000000000000000000000600052603160045260246000fdfea2646970667358221220e7d748d36a9f586984a9dcf17b0f4ff2d15c23403450237e59018a102a5bcadb64736f6c634300080b0033",
  "immutableReferences": {},
  "source": "pragma solidity ^0.8.2;\n\nimport \"@openzeppelin/contracts/token/ERC721/ERC721.sol\";\nimport \"@openzeppelin/contracts/token/ERC721/extensions/ERC721Enumerable.sol\";\nimport \"@openzeppelin/contracts/token/ERC721/extensions/ERC721URIStorage.sol\";\nimport \"@openzeppelin/contracts/security/Pausable.sol\";\nimport \"@openzeppelin/contracts/token/ERC721/extensions/ERC721Burnable.sol\";\nimport \"@openzeppelin/contracts/access/Ownable.sol\";\n\ncontract AvatarNFT is\n    ERC721,\n    ERC721Enumerable,\n    ERC721URIStorage,\n    Pausable,\n    ERC721Burnable,\n    Ownable\n{\n    uint256 private tokenIdTracker = 1;\n\n    // NFT list\n    string[] public nftList;\n\n    // NFT status\n    mapping(string => bool) nftExists;\n\n    // NFT word.\n    string[] public nftWords;\n\n    // Max token can be minted.\n    uint256 public MAX_SUPPLY;\n\n    string public baseTokenURI;\n\n    // Event\n    event welcomeToAvatar(uint256 indexed id);\n\n    // Public mint status.\n    bool public publicMintStatus = true;\n\n    // Set wallet restriction\n    bool public walletRestriction = true;\n\n    // set wallet restriction count\n    uint256 public walletRestrictionCount = 10;\n\n    //NFT amount\n    uint256 private nftAmount = 0;\n\n    constructor(\n        string memory name,\n        string memory symbol,\n        address ownerAddress\n    ) ERC721(name, symbol) {\n        transferOwnership(ownerAddress);\n    }\n\n    function pause() public onlyOwner {\n        _pause();\n    }\n\n    function unpause() public onlyOwner {\n        _unpause();\n    }\n\n    function _baseURI() internal view virtual override returns (string memory) {\n        return baseTokenURI;\n    }\n\n    function setBaseURI(string memory baseURI) public onlyOwner {\n        baseTokenURI = baseURI;\n    }\n\n    // set public mint status\n    function setPublicMint(bool _status) public onlyOwner {\n        publicMintStatus = _status;\n    }\n\n    // set wallet restriction status and count\n    function setWalletRestriction(uint256 _count, bool _status)\n        public\n        onlyOwner\n    {\n        walletRestriction = _status;\n        walletRestrictionCount = _count;\n    }\n\n    // Set Max supply.\n    function setMaxSupply(uint256 _maxSupply) public onlyOwner {\n        MAX_SUPPLY = _maxSupply;\n    }\n\n    //set NFT amount\n    function setNFTAmount(uint256 _amount) public onlyOwner {\n        nftAmount = _amount;\n    }\n\n    function safeMint(\n        address _to,\n        string memory _tokenURI,\n        string memory _nftWord\n    ) external onlyOwner {\n        require(!nftExists[_tokenURI]);\n        nftList.push(_tokenURI);\n        uint256 tokenId = tokenIdTracker;\n        _safeMint(_to, tokenId);\n        tokenIdTracker = tokenIdTracker + 1;\n        nftExists[_tokenURI] = true;\n\n        _setTokenURI(tokenId, _tokenURI);\n        nftWords.push(_nftWord);\n\n        emit welcomeToAvatar(tokenId);\n    }\n\n    // Public minting function.\n    function publicMinting(\n        address _to,\n        string memory _tokenURI,\n        string memory _nftWord\n    ) external payable {\n        // check public minting status.\n        require(publicMintStatus, \"Public mint is not enabled..\");\n        require(\n            balanceOf(_to) < walletRestrictionCount,\n            \"Already minted your NFT.\"\n        );\n        require(!nftExists[_tokenURI]);\n        require(nftAmount <= (msg.value), \"Minting fee is not correct..\");\n        payable(owner()).transfer(msg.value);\n        mintingInternal(_to, _tokenURI, _nftWord);\n    }\n\n    function mintingInternal(\n        address _to,\n        string memory _tokenURI,\n        string memory _nftWord\n    ) internal {\n        nftList.push(_tokenURI);\n\n        uint256 tokenId = tokenIdTracker;\n        _safeMint(_to, tokenId);\n\n        tokenIdTracker = tokenIdTracker + 1;\n        nftExists[_tokenURI] = true;\n\n        _setTokenURI(tokenId, _tokenURI);\n        nftWords.push(_nftWord);\n\n        emit welcomeToAvatar(tokenId);\n    }\n\n    function _beforeTokenTransfer(\n        address from,\n        address to,\n        uint256 tokenId\n    ) internal override(ERC721, ERC721Enumerable) whenNotPaused {\n        super._beforeTokenTransfer(from, to, tokenId);\n    }\n\n    function burnToken(uint256 tokenId) public onlyOwner {\n        _burn(tokenId);\n    }\n\n    // The following functions are overrides required by Solidity.\n\n    function _burn(uint256 tokenId)\n        internal\n        override(ERC721, ERC721URIStorage)\n        onlyOwner\n    {\n        super._burn(tokenId);\n    }\n\n    function tokenURI(uint256 tokenId)\n        public\n        view\n        override(ERC721, ERC721URIStorage)\n        returns (string memory)\n    {\n        return super.tokenURI(tokenId);\n    }\n\n    function supportsInterface(bytes4 interfaceId)\n        public\n        view\n        override(ERC721, ERC721Enumerable)\n        returns (bool)\n    {\n        return super.supportsInterface(interfaceId);\n    }\n}\n",
  "sourcePath": "/Users/aravinth/Repo/codegama/blockchain/nft-web3login-frontend-base/src/contracts/AvatarNFT.sol",
  "compiler": {
    "name": "solc",
    "version": "0.8.11+commit.d7f03943.Emscripten.clang"
  },
  "schemaVersion": "3.3.4",
  "updatedAt": "2022-01-29T17:00:56.276Z",
  "networkType": "ethereum",
  "devdoc": {
    "kind": "dev",
    "methods": {
      "approve(address,uint256)": {
        "details": "See {IERC721-approve}."
      },
      "balanceOf(address)": {
        "details": "See {IERC721-balanceOf}."
      },
      "burn(uint256)": {
        "details": "Burns `tokenId`. See {ERC721-_burn}. Requirements: - The caller must own `tokenId` or be an approved operator."
      },
      "getApproved(uint256)": {
        "details": "See {IERC721-getApproved}."
      },
      "isApprovedForAll(address,address)": {
        "details": "See {IERC721-isApprovedForAll}."
      },
      "name()": {
        "details": "See {IERC721Metadata-name}."
      },
      "owner()": {
        "details": "Returns the address of the current owner."
      },
      "ownerOf(uint256)": {
        "details": "See {IERC721-ownerOf}."
      },
      "paused()": {
        "details": "Returns true if the contract is paused, and false otherwise."
      },
      "renounceOwnership()": {
        "details": "Leaves the contract without owner. It will not be possible to call `onlyOwner` functions anymore. Can only be called by the current owner. NOTE: Renouncing ownership will leave the contract without an owner, thereby removing any functionality that is only available to the owner."
      },
      "safeTransferFrom(address,address,uint256)": {
        "details": "See {IERC721-safeTransferFrom}."
      },
      "safeTransferFrom(address,address,uint256,bytes)": {
        "details": "See {IERC721-safeTransferFrom}."
      },
      "setApprovalForAll(address,bool)": {
        "details": "See {IERC721-setApprovalForAll}."
      },
      "symbol()": {
        "details": "See {IERC721Metadata-symbol}."
      },
      "tokenByIndex(uint256)": {
        "details": "See {IERC721Enumerable-tokenByIndex}."
      },
      "tokenOfOwnerByIndex(address,uint256)": {
        "details": "See {IERC721Enumerable-tokenOfOwnerByIndex}."
      },
      "totalSupply()": {
        "details": "See {IERC721Enumerable-totalSupply}."
      },
      "transferFrom(address,address,uint256)": {
        "details": "See {IERC721-transferFrom}."
      },
      "transferOwnership(address)": {
        "details": "Transfers ownership of the contract to a new account (`newOwner`). Can only be called by the current owner."
      }
    },
    "version": 1
  },
  "userdoc": {
    "kind": "user",
    "methods": {},
    "version": 1
  }
}